{
  "contractName": "TodoList",
  "abi": [
    {
      "constant": true,
      "inputs": [
        {
          "name": "",
          "type": "uint256"
        }
      ],
      "name": "tasks",
      "outputs": [
        {
          "name": "id",
          "type": "uint256"
        },
        {
          "name": "content",
          "type": "string"
        },
        {
          "name": "completed",
          "type": "bool"
        }
      ],
      "payable": false,
      "stateMutability": "view",
      "type": "function",
      "signature": "0x8d977672"
    },
    {
      "constant": true,
      "inputs": [],
      "name": "taskCount",
      "outputs": [
        {
          "name": "",
          "type": "uint256"
        }
      ],
      "payable": false,
      "stateMutability": "view",
      "type": "function",
      "signature": "0xb6cb58a5"
    },
    {
      "inputs": [],
      "payable": false,
      "stateMutability": "nonpayable",
      "type": "constructor",
      "signature": "constructor"
    },
    {
      "constant": false,
      "inputs": [
        {
          "name": "_content",
          "type": "string"
        }
      ],
      "name": "createTask",
      "outputs": [],
      "payable": false,
      "stateMutability": "nonpayable",
      "type": "function",
      "signature": "0x111002aa"
    },
    {
      "constant": false,
      "inputs": [],
      "name": "createTask2",
      "outputs": [],
      "payable": false,
      "stateMutability": "nonpayable",
      "type": "function",
      "signature": "0x4f08690e"
    }
  ],
  "bytecode": "0x60806040526000805534801561001457600080fd5b5060408051808201909152600581527f5374617274000000000000000000000000000000000000000000000000000000602082015261005b90640100000000610160810204565b6100cf606060405190810160405280602481526020017f54686973206973206669727374207461736b204d616c696e646120312055706481526020017f6174657300000000000000000000000000000000000000000000000000000000815250610160640100000000026401000000009004565b60408051808201909152601c81527f54686973206973206669727374207461736b204d616c696e6461203200000000602082015261011590640100000000610160810204565b60408051808201909152600381527f456e640000000000000000000000000000000000000000000000000000000000602082015261015b90640100000000610160810204565b610267565b60008054600190810180835560408051606081018252828152602080820187815282840186905293865284815291909420845181559151805192936101ad939085019291909101906101cc565b50604091909101516002909101805460ff191691151591909117905550565b828054600181600116156101000203166002900490600052602060002090601f016020900481019282601f1061020d57805160ff191683800117855561023a565b8280016001018555821561023a579182015b8281111561023a57825182559160200191906001019061021f565b5061024692915061024a565b5090565b61026491905b808211156102465760008155600101610250565b90565b61048f806102766000396000f3fe6080604052600436106100615763ffffffff7c0100000000000000000000000000000000000000000000000000000000600035041663111002aa81146100665780634f08690e1461011b5780638d97767214610130578063b6cb58a5146101e4575b600080fd5b34801561007257600080fd5b506101196004803603602081101561008957600080fd5b8101906020810181356401000000008111156100a457600080fd5b8201836020820111156100b657600080fd5b803590602001918460018302840111640100000000831117156100d857600080fd5b91908080601f01602080910402602001604051908101604052809392919081815260200183838082843760009201919091525092955061020b945050505050565b005b34801561012757600080fd5b50610119610277565b34801561013c57600080fd5b5061015a6004803603602081101561015357600080fd5b5035610313565b604051808481526020018060200183151515158152602001828103825284818151815260200191508051906020019080838360005b838110156101a757818101518382015260200161018f565b50505050905090810190601f1680156101d45780820380516001836020036101000a031916815260200191505b5094505050505060405180910390f35b3480156101f057600080fd5b506101f96103c2565b60408051918252519081900360200190f35b6000805460019081018083556040805160608101825282815260208082018781528284018690529386528481529190942084518155915180519293610258939085019291909101906103c8565b50604091909101516002909101805460ff191691151591909117905550565b604080516060810182526000805480835283518085018552600981527f545454542054657374000000000000000000000000000000000000000000000060208281019190915280850191825260018587018190529283018452828152949092208351815591518051939492936102f5939285019291909101906103c8565b50604091909101516002909101805460ff1916911515919091179055565b600160208181526000928352604092839020805481840180548651600296821615610100026000190190911695909504601f810185900485028601850190965285855290949193929091908301828280156103af5780601f10610384576101008083540402835291602001916103af565b820191906000526020600020905b81548152906001019060200180831161039257829003601f168201915b5050506002909301549192505060ff1683565b60005481565b828054600181600116156101000203166002900490600052602060002090601f016020900481019282601f1061040957805160ff1916838001178555610436565b82800160010185558215610436579182015b8281111561043657825182559160200191906001019061041b565b50610442929150610446565b5090565b61046091905b80821115610442576000815560010161044c565b9056fea165627a7a72305820e3566e320638943c494816c06818b5b61baa8b7aa8023138097098445301d5150029",
  "source": "pragma solidity ^0.5.0;\n\ncontract TodoList {\n    uint public taskCount = 0;\n\n    struct Task {\n        uint id;\n        string content;\n        bool completed;\n    }\n\n    constructor() public {\n        createTask(\"Start\");\n        createTask(\"This is first task Malinda 1 Updates\");\n        createTask(\"This is first task Malinda 2\");\n         createTask(\"End\");\n    }\n\n    mapping(uint => Task) public tasks;\n\n    function createTask(string memory _content) public {\n        taskCount ++;\n        tasks[taskCount] = Task(taskCount, _content, true);\n    }\n\n    function createTask2() public {\n        tasks[taskCount + 1] = Task(taskCount, 'TTTT Test', true);\n    }\n\n}",
  "sourcePath": "D:/Malinda/eth-fe/contracts/TodoList.sol",
  "compiler": {
    "name": "solc",
    "version": "0.5.0+commit.1d4f565a.Emscripten.clang"
  },
  "schemaVersion": "3.0.1",
  "updatedAt": "2021-04-30T03:57:37.305Z",
  "devdoc": {
    "methods": {}
  },
  "userdoc": {
    "methods": {}
  }
}